:100000000C9434000C9451000C9451000C94510049
:100010000C9451000C9451000C9451000C9451001C
:100020000C9451000C9451000C9451000C9451000C
:100030000C9451000C9451000C9451000C945100FC
:100040000C9451000C9451000C9451000C945100EC
:100050000C9451000C9451000C9451000C945100DC
:100060000C9451000C94510011241FBECFEFD8E026
:10007000DEBFCDBF11E0A0E0B1E0EEE0FCE002C0E9
:1000800005900D92A035B107D9F721E0A0E5B1E0C8
:1000900001C01D92AC36B207E1F70E943E040C94F9
:1000A00005060C9400009091C00095FFFCCF809352
:1000B000C6000895CF93DF93EC018991811103C0AD
:1000C000DF91CF9108950E945300F7CFCF93DF9334
:1000D000EC0188E091E00E945A00CE010E945A0093
:1000E0008AE0DF91CF910C9453000F931F93CF932D
:1000F0008C01C62F88E091E00E945A00C8010E943E
:100100005A0080E20E94530080E38C0F0E9453004B
:100110008AE0CF911F910F910C94530090910201AE
:10012000981739F080930201682F8FE091E00C94CA
:100130007500089521E030E0082E01C0220F0A94D6
:10014000EAF790916301922301F56130710551F452
:10015000909162019223C9F490916101833069F01A
:1001600080E00EC0909161016230710551F49223DC
:1001700061F4909162018111F3CF922381E081F3C8
:10018000089580916201982BF8CF81E0089521E0D5
:1001900030E0082E01C0220F0A94EAF720959091D2
:1001A00063019223909363016130710569F490912A
:1001B00062019223909362018330E9F4809161019E
:1001C0002823209361010895909161019223623068
:1001D000710551F49093610181110DC0809162010C
:1001E000282320936201089580916201282320939F
:1001F0006201909361010895982F4091630150919D
:1002000062016091610183E0E1E0F0E0981714F091
:100210008FEF08959F01082E01C0220F0A94EAF77C
:10022000742F7223B1F7752F722399F7833011F46D
:10023000262379F78150EACFCF93DF9361307105A0
:1002400021F4DF91CF910C94FC00909163016091B7
:10025000610170916201815050E040E0E82F082E6A
:10026000000CFF0BA1E0B0E087FF04C08FEFDF912F
:10027000CF9108959F01241B350BED0102C0CC0FD7
:10028000DD1F2A95E2F79E01C92FC22381F7C62FF1
:10029000C22369F7811102C0272349F781504F5FBC
:1002A0005F4FE2CF209100013091010128173907FB
:1002B00099F090930101809300018130910521F420
:1002C00087E191E00C946600029719F48EE191E0C9
:1002D000F9CF87E291E0F6CF0895CF92DF92EF92C7
:1002E000FF92FC019081962391F190E080E027C07D
:1002F0008FE99FE00197F1F700C00000C09068010E
:10030000D0906901E0906A01F0906B019FEFC91AEB
:10031000D90AE90AF90AC0926801D0926901E0920B
:100320006A01F0926B012150310911F78081682335
:10033000E1F681E0FA019081911180E091E0FA010B
:1003400090838170FF90EF90DF90CF9008952BE025
:1003500030E0E9CF90910301992331F120916401BC
:1003600030916501232B01F14091640150916501A9
:10037000E82FF0E0EC5FFE4F20814130510531F471
:10038000909166019F5F921768F008954230510581
:1003900059F49091660130E02F5F3F4F921713069A
:1003A00019F014F00C948E00089581E080930301FD
:1003B00080E391E00E94660010925C0108958091B4
:1003C0005C01882311F180910301882319F01092B8
:1003D0005C0108958091680190916901A0916A0182
:1003E000B0916B0140915D0150915E0160915F01A0
:1003F00070916001841B950BA60BB70B883B9B404B
:10040000A105B10510F00C94D501089547E551E020
:1004100060E889E290E00E946D018823C9F01092A3
:1004200003018DE391E00E94660080916801909144
:100430006901A0916A01B0916B0180935D01909375
:100440005E01A0935F01B093600181E080935C0145
:1004500046E551E060E489E290E00E946D0181117F
:100460000E94D5014BE551E060E283E290E00E94FA
:100470006D01882341F08091630181608093630165
:1004800080E00E94AA014AE551E060E183E290E049
:100490000E946D01882341F0809163018260809306
:1004A000630181E00E94AA0149E551E068E083E22E
:1004B00090E00E946D01882341F080916301846087
:1004C0008093630182E00E94AA0148E551E064E064
:1004D00083E290E00E946D01882341F080916301E6
:1004E00088608093630183E00E94AA0145E551E0A2
:1004F00060E289E290E00E946D01882341F08091E2
:10050000620181608093620180E00E94AA0144E55B
:1005100051E060E189E290E00E946D01882341F0A2
:100520008091610182608093610181E00E94AA0153
:1005300043E551E068E089E290E00E946D01882384
:1005400041F08091620182608093620181E00E94AB
:10055000AA0142E551E064E089E290E00E946D0169
:10056000882341F08091610184608093610182E081
:100570000E94AA0141E551E060E286E290E00E941B
:100580006D01882341F08091620184608093620153
:1005900082E00E94AA0140E551E060E186E290E03D
:1005A0000E946D01882341F08091610188608093F1
:1005B000610183E00C94AA010895CF93DF93EC01CD
:1005C000219718F4DF91CF9108958FE99FE001976B
:1005D000F1F700C000008091680190916901A0913D
:1005E0006A01B0916B010196A11DB11D8093680154
:1005F00090936901A0936A01B0936B010E94060277
:100600000E94DF01DDCF109203018DE391E00E9493
:1006100066008091680190916901A0916A01B09192
:100620006B0180935D0190935E01A0935F01B09395
:10063000600181E080935C0108952F923F924F9278
:100640005F926F927F928F929F92AF92BF92CF9262
:10065000DF92EF92FF920F931F93CF93DF9300D01F
:1006600000D000D01F92CDB7DEB75C011B014A015C
:1006700080910301811111C00E94D5012EE130E06B
:100680003B832A838AE090E00E94DD028A819B817D
:1006900001979B838A83892BA9F780EA9FE00E94B8
:1006A000DD02B501F10180810E941C0187FDCDC0F2
:1006B000E82F082E000CFF0BEC5FFE4FC0800E945D
:1006C0008E00F401D0802D2D30E03F832E83EC2C62
:1006D000F12C2E153F050CF4A2C0DC189FEF998376
:1006E000A3C0EE81FF812C813D81E20FF31FFF83C8
:1006F000EE833981313031F4EE16FF065CF4FF826F
:10070000EE8208C089818F3F29F4EE81FF81EE15CA
:10071000FF05ACF30E81202FF401008300936601E6
:1007200030E0A0EDB7E00E94F605A30192010E941F
:10073000D4052053384F309389002093880084E0FB
:1007400091E09B838A8310E0EA81FB819191FB8396
:10075000EA83F4018081891B990B97FF03C091956F
:10076000819591090297B4F5F1018081811719F003
:10077000108310936701B501812F0E949A0088238E
:1007800049F1812F0E948E00612F88E491E00E9440
:1007900075008FEF80930201B501812F0E94C70081
:1007A00027960FB6F894DEBF0FBECDBFDF91CF9175
:1007B0001F910F91FF90EF90DF90CF90BF90AF907F
:1007C0009F908F907F906F905F904F903F902F9071
:1007D0000C9403031F5F143009F0B6CF2E813F81C4
:1007E0002E153F05D4F43C2D301B032F8D2D801B7F
:1007F0008D3220F0802F0E3208F08DE29DE2981BA2
:10080000E2E49E9FC00111246DE270E00E94C005E9
:10081000CB0104960E94DD0212C00C19E7CF3C2DDB
:100820003D19D32E81E089838981082E000C990B14
:100830009D838C8384EB482E512C612C712C2E814E
:100840003F81E216F30609F04CCF27960FB6F894D5
:10085000DEBF0FBECDBFDF91CF911F910F91FF90F3
:10086000EF90DF90CF90BF90AF909F908F907F9050
:100870006F905F904F903F902F900895CF93DF93AC
:1008800000D0CDB7DEB784B1837C84B985B18C63E9
:1008900085B98AB183708AB98BB18C6F8BB987B1F6
:1008A0008F7C87B988B1806388B9219A82E8809368
:1008B00080008AE1809381008FE39CE99093870018
:1008C00080938600519A1092C50087E68093C400F9
:1008D00086E08093C20088E08093C10091E09A8313
:1008E00086E4898390936701809366011092650185
:1008F0001092640190E080E00E9452010981202F53
:1009000030E0A0EDB7E00E94F60524EB30E040E0D7
:1009100050E00E94D4052053384F30938900209333
:10092000880010E0EE24EA940E31110514F4EE2450
:10093000E394CE2C0E2C000CDD08FC2CF00E94EB76
:10094000892E912CA12CB12C0E31110571F51A8232
:10095000109267018981809366010E94D50110E0A1
:1009600000E0CC24C394D12C0E9406020E94DF0137
:10097000E0906301B0906201BE2890906101AB2CC1
:10098000A92809F4EBC0FA80B8018F2D0E949A00C3
:10099000882321F1B8018F2D0E94C7000E94030314
:1009A00085E090E00E94DD02DFCF0C0D1D1DF98275
:1009B0002F2D30E0A0EDB7E00E94F605A5019401CF
:1009C0000E94D4052053384F30938900209388002B
:1009D00088E790E00E94DD02FE0CB6CF8091030113
:1009E0008823F1F20115110509F047C081E08F0D50
:1009F00090E09C01243050F0E928FA944F2D30E02B
:100A000020E0EF2D0F2C000CFF0B24C0A601022EBE
:100A100001C0440F0A94EAF74B212F5F3F4F442354
:100A200049F3D0926501C092640181E090E00E9498
:100A3000520127C0BF01621B730BD60102C0AA0F6F
:100A4000BB1F6A95E2F7BD016E212F5F3F4F611119
:100A50008EC0415047FFEECF843030F190E080E00F
:100A60004F2D0F2C000C550BF7FE2BC0109365017A
:100A700000936401C8010E9452010130110509F080
:100A800045C01A81812F0E94FC0087FD2DC0AE0158
:100A90004F5F5F4FBE016E5F7F4F81E090E00E942D
:100AA0001D0301E010E07CCF9601082E01C0220F4B
:100AB0000A94EAF72A210196222371F201E010E05C
:100AC000D5CF9A01281B390BB60102C0660F771FDC
:100AD0002A95E2F79B012A210196211102C0FA947E
:100AE000C3CF02E010E0C2CF62E070E0812F0E942D
:100AF0001C0187FD33C082E090E0909365018093F4
:100B000064010E94520102E010E04ACF0230110558
:100B100009F046CF1A8162E070E0812F0E941C012B
:100B200087FD0BC0AE014F5F5F4FBE016E5F7F4F11
:100B300082E090E00E941D03E6CF812F0E94FC001E
:100B400087FD05C0D0926501C0926401AACF1092C2
:100B500065011092640110E000E022CF109265015F
:100B60001092640190E080E00E945201F4CF82E094
:100B700090E090936501809364010E945201CACF76
:100B8000AA1BBB1B51E107C0AA1FBB1FA617B707B3
:100B900010F0A61BB70B881F991F5A95A9F78095CF
:100BA0009095BC01CD010895A1E21A2EAA1BBB1B92
:100BB000FD010DC0AA1FBB1FEE1FFF1FA217B30729
:100BC000E407F50720F0A21BB30BE40BF50B661F3F
:100BD000771F881F991F1A9469F760957095809503
:100BE00090959B01AC01BD01CF010895A29FB0017A
:100BF000B39FC001A39F700D811D1124911DB29F51
:0E0C0000700D811D1124911D0895F894FFCFF1
:100C0E00FF00FF011E466E964556454E5420004D80
:100C1E004F56455F544F004449525F55500044496A
:100C2E00525F444F574E004449525F49444C450071
:100C3E00444F4F52535F434C4F53454400444F4F24
:100C4E0052535F4F50454E00415252495645440053
:00000001FF
